{
  "contractName": "GobangUserProfile",
  "abi": [
    {
      "inputs": [
        {
          "internalType": "address",
          "name": "",
          "type": "address"
        }
      ],
      "name": "profiles",
      "outputs": [
        {
          "internalType": "string",
          "name": "username",
          "type": "string"
        },
        {
          "internalType": "uint256",
          "name": "matchCount",
          "type": "uint256"
        },
        {
          "internalType": "uint256",
          "name": "winningCount",
          "type": "uint256"
        },
        {
          "internalType": "uint256",
          "name": "rank",
          "type": "uint256"
        }
      ],
      "stateMutability": "view",
      "type": "function",
      "constant": true
    },
    {
      "inputs": [
        {
          "internalType": "address",
          "name": "userAddress",
          "type": "address"
        },
        {
          "internalType": "string",
          "name": "username",
          "type": "string"
        }
      ],
      "name": "createUserProfile",
      "outputs": [],
      "stateMutability": "nonpayable",
      "type": "function"
    },
    {
      "inputs": [
        {
          "internalType": "address",
          "name": "userAddress",
          "type": "address"
        }
      ],
      "name": "incrementMatchCount",
      "outputs": [],
      "stateMutability": "nonpayable",
      "type": "function"
    },
    {
      "inputs": [
        {
          "internalType": "address",
          "name": "userAddress",
          "type": "address"
        }
      ],
      "name": "incrementWinningCount",
      "outputs": [],
      "stateMutability": "nonpayable",
      "type": "function"
    },
    {
      "inputs": [
        {
          "internalType": "address",
          "name": "userAddress",
          "type": "address"
        },
        {
          "internalType": "uint256",
          "name": "newRank",
          "type": "uint256"
        }
      ],
      "name": "updateRank",
      "outputs": [],
      "stateMutability": "nonpayable",
      "type": "function"
    },
    {
      "inputs": [
        {
          "internalType": "address",
          "name": "userAddress",
          "type": "address"
        },
        {
          "internalType": "string",
          "name": "username",
          "type": "string"
        },
        {
          "internalType": "uint256",
          "name": "matchCount",
          "type": "uint256"
        },
        {
          "internalType": "uint256",
          "name": "winningCount",
          "type": "uint256"
        },
        {
          "internalType": "uint256",
          "name": "rank",
          "type": "uint256"
        }
      ],
      "name": "updateUserProfile",
      "outputs": [],
      "stateMutability": "nonpayable",
      "type": "function"
    },
    {
      "inputs": [
        {
          "internalType": "address",
          "name": "userAddress",
          "type": "address"
        }
      ],
      "name": "getUserProfile",
      "outputs": [
        {
          "internalType": "string",
          "name": "",
          "type": "string"
        },
        {
          "internalType": "uint256",
          "name": "",
          "type": "uint256"
        },
        {
          "internalType": "uint256",
          "name": "",
          "type": "uint256"
        },
        {
          "internalType": "uint256",
          "name": "",
          "type": "uint256"
        }
      ],
      "stateMutability": "view",
      "type": "function",
      "constant": true
    }
  ],
  "bytecode": "0x608060405234801561000f575f80fd5b50610c778061001d5f395ff3fe608060405234801561000f575f80fd5b506004361061007b575f3560e01c8063987ee15611610059578063987ee156146100d3578063bbe1562714610106578063bebce97014610139578063e97252f0146101555761007b565b8063012ae93d1461007f5780635e0afccc1461009b578063905efe64146100b7575b5f80fd5b610099600480360381019061009491906106ef565b610171565b005b6100b560048036038101906100b09190610782565b6101e4565b005b6100d160048036038101906100cc91906107c0565b61022c565b005b6100ed60048036038101906100e891906107c0565b610285565b6040516100fd9493929190610874565b60405180910390f35b610120600480360381019061011b91906107c0565b610375565b6040516101309493929190610874565b60405180910390f35b610153600480360381019061014e91906107c0565b610426565b005b61016f600480360381019061016a91906108be565b61047f565b005b5f805f8773ffffffffffffffffffffffffffffffffffffffff1673ffffffffffffffffffffffffffffffffffffffff1681526020019081526020015f20905084815f0190816101c09190610b12565b50838160010181905550828160020181905550818160030181905550505050505050565b805f808473ffffffffffffffffffffffffffffffffffffffff1673ffffffffffffffffffffffffffffffffffffffff1681526020019081526020015f20600301819055505050565b60015f808373ffffffffffffffffffffffffffffffffffffffff1673ffffffffffffffffffffffffffffffffffffffff1681526020019081526020015f206001015f82825461027b9190610c0e565b9250508190555050565b60605f805f805f808773ffffffffffffffffffffffffffffffffffffffff1673ffffffffffffffffffffffffffffffffffffffff1681526020019081526020015f209050805f018160010154826002015483600301548380546102e790610945565b80601f016020809104026020016040519081016040528092919081815260200182805461031390610945565b801561035e5780601f106103355761010080835404028352916020019161035e565b820191905f5260205f20905b81548152906001019060200180831161034157829003601f168201915b505050505093509450945094509450509193509193565b5f602052805f5260405f205f91509050805f01805461039390610945565b80601f01602080910402602001604051908101604052809291908181526020018280546103bf90610945565b801561040a5780601f106103e15761010080835404028352916020019161040a565b820191905f5260205f20905b8154815290600101906020018083116103ed57829003601f168201915b5050505050908060010154908060020154908060030154905084565b60015f808373ffffffffffffffffffffffffffffffffffffffff1673ffffffffffffffffffffffffffffffffffffffff1681526020019081526020015f206002015f8282546104759190610c0e565b9250508190555050565b60405180608001604052808281526020015f81526020015f81526020015f8152505f808473ffffffffffffffffffffffffffffffffffffffff1673ffffffffffffffffffffffffffffffffffffffff1681526020019081526020015f205f820151815f0190816104ef9190610b12565b506020820151816001015560408201518160020155606082015181600301559050505050565b5f604051905090565b5f80fd5b5f80fd5b5f73ffffffffffffffffffffffffffffffffffffffff82169050919050565b5f61054f82610526565b9050919050565b61055f81610545565b8114610569575f80fd5b50565b5f8135905061057a81610556565b92915050565b5f80fd5b5f80fd5b5f601f19601f8301169050919050565b7f4e487b71000000000000000000000000000000000000000000000000000000005f52604160045260245ffd5b6105ce82610588565b810181811067ffffffffffffffff821117156105ed576105ec610598565b5b80604052505050565b5f6105ff610515565b905061060b82826105c5565b919050565b5f67ffffffffffffffff82111561062a57610629610598565b5b61063382610588565b9050602081019050919050565b828183375f83830152505050565b5f61066061065b84610610565b6105f6565b90508281526020810184848401111561067c5761067b610584565b5b610687848285610640565b509392505050565b5f82601f8301126106a3576106a2610580565b5b81356106b384826020860161064e565b91505092915050565b5f819050919050565b6106ce816106bc565b81146106d8575f80fd5b50565b5f813590506106e9816106c5565b92915050565b5f805f805f60a086880312156107085761070761051e565b5b5f6107158882890161056c565b955050602086013567ffffffffffffffff81111561073657610735610522565b5b6107428882890161068f565b9450506040610753888289016106db565b9350506060610764888289016106db565b9250506080610775888289016106db565b9150509295509295909350565b5f80604083850312156107985761079761051e565b5b5f6107a58582860161056c565b92505060206107b6858286016106db565b9150509250929050565b5f602082840312156107d5576107d461051e565b5b5f6107e28482850161056c565b91505092915050565b5f81519050919050565b5f82825260208201905092915050565b5f5b83811015610822578082015181840152602081019050610807565b5f8484015250505050565b5f610837826107eb565b61084181856107f5565b9350610851818560208601610805565b61085a81610588565b840191505092915050565b61086e816106bc565b82525050565b5f6080820190508181035f83015261088c818761082d565b905061089b6020830186610865565b6108a86040830185610865565b6108b56060830184610865565b95945050505050565b5f80604083850312156108d4576108d361051e565b5b5f6108e18582860161056c565b925050602083013567ffffffffffffffff81111561090257610901610522565b5b61090e8582860161068f565b9150509250929050565b7f4e487b71000000000000000000000000000000000000000000000000000000005f52602260045260245ffd5b5f600282049050600182168061095c57607f821691505b60208210810361096f5761096e610918565b5b50919050565b5f819050815f5260205f209050919050565b5f6020601f8301049050919050565b5f82821b905092915050565b5f600883026109d17fffffffffffffffffffffffffffffffffffffffffffffffffffffffffffffffff82610996565b6109db8683610996565b95508019841693508086168417925050509392505050565b5f819050919050565b5f610a16610a11610a0c846106bc565b6109f3565b6106bc565b9050919050565b5f819050919050565b610a2f836109fc565b610a43610a3b82610a1d565b8484546109a2565b825550505050565b5f90565b610a57610a4b565b610a62818484610a26565b505050565b5b81811015610a8557610a7a5f82610a4f565b600181019050610a68565b5050565b601f821115610aca57610a9b81610975565b610aa484610987565b81016020851015610ab3578190505b610ac7610abf85610987565b830182610a67565b50505b505050565b5f82821c905092915050565b5f610aea5f1984600802610acf565b1980831691505092915050565b5f610b028383610adb565b9150826002028217905092915050565b610b1b826107eb565b67ffffffffffffffff811115610b3457610b33610598565b5b610b3e8254610945565b610b49828285610a89565b5f60209050601f831160018114610b7a575f8415610b68578287015190505b610b728582610af7565b865550610bd9565b601f198416610b8886610975565b5f5b82811015610baf57848901518255600182019150602085019450602081019050610b8a565b86831015610bcc5784890151610bc8601f891682610adb565b8355505b6001600288020188555050505b505050505050565b7f4e487b71000000000000000000000000000000000000000000000000000000005f52601160045260245ffd5b5f610c18826106bc565b9150610c23836106bc565b9250828201905080821115610c3b57610c3a610be1565b5b9291505056fea264697066735822122003dfc47939ca0fd4c45c8e77206f283bc5ecc21b259177354463adde24da1e7e64736f6c63430008140033",
  "immutableReferences": {},
  "source": "// SPDX-License-Identifier: MIT\npragma solidity >=0.7.0 <0.9.0;\n\ncontract GobangUserProfile {\n    struct UserProfile {\n        string username;\n        uint256 matchCount;\n        uint256 winningCount;\n        uint256 rank;\n    }\n\n    mapping(address => UserProfile) public profiles;\n\n    function createUserProfile(\n        address userAddress,\n        string memory username\n    ) public {\n        profiles[userAddress] = UserProfile(username, 0, 0, 0);\n    }\n\n    function incrementMatchCount(address userAddress) public {\n        profiles[userAddress].matchCount += 1;\n    }\n\n    function incrementWinningCount(address userAddress) public {\n        profiles[userAddress].winningCount += 1;\n    }\n\n    function updateRank(address userAddress, uint256 newRank) public {\n        profiles[userAddress].rank = newRank;\n    }\n\n    function updateUserProfile(address userAddress, string memory username, uint256 matchCount, uint256 winningCount, uint256 rank) public {\n        UserProfile storage profile = profiles[userAddress];\n        profile.username = username;\n        profile.matchCount = matchCount;\n        profile.winningCount = winningCount;\n        profile.rank = rank;\n    }\n\n    function getUserProfile(address userAddress) public view returns (string memory, uint256, uint256, uint256) {\n        UserProfile storage profile = profiles[userAddress];\n        return (profile.username, profile.matchCount, profile.winningCount, profile.rank);\n    }\n}\n",
  "sourcePath": "/Users/Bevis/Local-Files/EECE597/EECE597Demo/contract/GobangUserProfile/contracts/GobangUserProfile.sol",
  "compiler": {
    "name": "solc",
    "version": "0.8.20+commit.a1b79de6.Emscripten.clang"
  },
  "schemaVersion": "3.4.14",
  "updatedAt": "2023-07-04T06:05:03.480Z",
  "networkType": "ethereum",
  "devdoc": {
    "kind": "dev",
    "methods": {},
    "version": 1
  },
  "userdoc": {
    "kind": "user",
    "methods": {},
    "version": 1
  }
}