{
  "contractName": "GobangUserProfile",
  "abi": [
    {
      "inputs": [
        {
          "internalType": "address",
          "name": "",
          "type": "address"
        }
      ],
      "name": "profiles",
      "outputs": [
        {
          "internalType": "string",
          "name": "username",
          "type": "string"
        },
        {
          "internalType": "string",
          "name": "avatarUrl",
          "type": "string"
        },
        {
          "internalType": "uint256",
          "name": "matchCount",
          "type": "uint256"
        },
        {
          "internalType": "uint256",
          "name": "winningCount",
          "type": "uint256"
        },
        {
          "internalType": "uint256",
          "name": "rank",
          "type": "uint256"
        }
      ],
      "stateMutability": "view",
      "type": "function",
      "constant": true
    },
    {
      "inputs": [
        {
          "internalType": "address",
          "name": "userAddress",
          "type": "address"
        },
        {
          "internalType": "string",
          "name": "username",
          "type": "string"
        },
        {
          "internalType": "string",
          "name": "avatarUrl",
          "type": "string"
        }
      ],
      "name": "createUserProfile",
      "outputs": [],
      "stateMutability": "nonpayable",
      "type": "function"
    },
    {
      "inputs": [
        {
          "internalType": "address",
          "name": "userAddress",
          "type": "address"
        }
      ],
      "name": "incrementMatchCount",
      "outputs": [],
      "stateMutability": "nonpayable",
      "type": "function"
    },
    {
      "inputs": [
        {
          "internalType": "address",
          "name": "userAddress",
          "type": "address"
        }
      ],
      "name": "incrementWinningCount",
      "outputs": [],
      "stateMutability": "nonpayable",
      "type": "function"
    },
    {
      "inputs": [
        {
          "internalType": "address",
          "name": "userAddress",
          "type": "address"
        },
        {
          "internalType": "uint256",
          "name": "newRank",
          "type": "uint256"
        }
      ],
      "name": "updateRank",
      "outputs": [],
      "stateMutability": "nonpayable",
      "type": "function"
    },
    {
      "inputs": [
        {
          "internalType": "address",
          "name": "userAddress",
          "type": "address"
        },
        {
          "internalType": "string",
          "name": "username",
          "type": "string"
        },
        {
          "internalType": "string",
          "name": "avatarUrl",
          "type": "string"
        },
        {
          "internalType": "uint256",
          "name": "matchCount",
          "type": "uint256"
        },
        {
          "internalType": "uint256",
          "name": "winningCount",
          "type": "uint256"
        },
        {
          "internalType": "uint256",
          "name": "rank",
          "type": "uint256"
        }
      ],
      "name": "updateUserProfile",
      "outputs": [],
      "stateMutability": "nonpayable",
      "type": "function"
    },
    {
      "inputs": [
        {
          "internalType": "address",
          "name": "userAddress",
          "type": "address"
        }
      ],
      "name": "getUserProfile",
      "outputs": [
        {
          "internalType": "string",
          "name": "",
          "type": "string"
        },
        {
          "internalType": "string",
          "name": "",
          "type": "string"
        },
        {
          "internalType": "uint256",
          "name": "",
          "type": "uint256"
        },
        {
          "internalType": "uint256",
          "name": "",
          "type": "uint256"
        },
        {
          "internalType": "uint256",
          "name": "",
          "type": "uint256"
        }
      ],
      "stateMutability": "view",
      "type": "function",
      "constant": true
    }
  ],
  "bytecode": "0x608060405234801561001057600080fd5b50610d0b806100206000396000f3fe608060405234801561001057600080fd5b506004361061007d5760003560e01c8063bbe156271161005b578063bbe15627146100ee578063bd000bbe14610122578063bebce9701461013e578063eae692c21461015a5761007d565b80635e0afccc14610082578063905efe641461009e578063987ee156146100ba575b600080fd5b61009c600480360381019061009791906107f5565b610176565b005b6100b860048036038101906100b39190610835565b6101c0565b005b6100d460048036038101906100cf9190610835565b61021c565b6040516100e595949392919061090a565b60405180910390f35b61010860048036038101906101039190610835565b6103a8565b60405161011995949392919061090a565b60405180910390f35b61013c60048036038101906101379190610aa0565b6104ee565b005b61015860048036038101906101539190610835565b6105b6565b005b610174600480360381019061016f9190610b2b565b610612565b005b806000808473ffffffffffffffffffffffffffffffffffffffff1673ffffffffffffffffffffffffffffffffffffffff168152602001908152602001600020600401819055505050565b60016000808373ffffffffffffffffffffffffffffffffffffffff1673ffffffffffffffffffffffffffffffffffffffff16815260200190815260200160002060020160008282546102129190610c1f565b9250508190555050565b6060806000806000806000808873ffffffffffffffffffffffffffffffffffffffff1673ffffffffffffffffffffffffffffffffffffffff1681526020019081526020016000209050806000018160010182600201548360030154846004015484805461028890610ca4565b80601f01602080910402602001604051908101604052809291908181526020018280546102b490610ca4565b80156103015780601f106102d657610100808354040283529160200191610301565b820191906000526020600020905b8154815290600101906020018083116102e457829003601f168201915b5050505050945083805461031490610ca4565b80601f016020809104026020016040519081016040528092919081815260200182805461034090610ca4565b801561038d5780601f106103625761010080835404028352916020019161038d565b820191906000526020600020905b81548152906001019060200180831161037057829003601f168201915b50505050509350955095509550955095505091939590929450565b60006020528060005260406000206000915090508060000180546103cb90610ca4565b80601f01602080910402602001604051908101604052809291908181526020018280546103f790610ca4565b80156104445780601f1061041957610100808354040283529160200191610444565b820191906000526020600020905b81548152906001019060200180831161042757829003601f168201915b50505050509080600101805461045990610ca4565b80601f016020809104026020016040519081016040528092919081815260200182805461048590610ca4565b80156104d25780601f106104a7576101008083540402835291602001916104d2565b820191906000526020600020905b8154815290600101906020018083116104b557829003601f168201915b5050505050908060020154908060030154908060040154905085565b6040518060a00160405280838152602001828152602001600081526020016000815260200160008152506000808573ffffffffffffffffffffffffffffffffffffffff1673ffffffffffffffffffffffffffffffffffffffff16815260200190815260200160002060008201518160000190805190602001906105729291906106aa565b50602082015181600101908051906020019061058f9291906106aa565b50604082015181600201556060820151816003015560808201518160040155905050505050565b60016000808373ffffffffffffffffffffffffffffffffffffffff1673ffffffffffffffffffffffffffffffffffffffff16815260200190815260200160002060030160008282546106089190610c1f565b9250508190555050565b60008060008873ffffffffffffffffffffffffffffffffffffffff1673ffffffffffffffffffffffffffffffffffffffff16815260200190815260200160002090508581600001908051906020019061066c9291906106aa565b50848160010190805190602001906106859291906106aa565b5083816002018190555082816003018190555081816004018190555050505050505050565b8280546106b690610ca4565b90600052602060002090601f0160209004810192826106d8576000855561071f565b82601f106106f157805160ff191683800117855561071f565b8280016001018555821561071f579182015b8281111561071e578251825591602001919060010190610703565b5b50905061072c9190610730565b5090565b5b80821115610749576000816000905550600101610731565b5090565b6000604051905090565b600080fd5b600080fd5b600073ffffffffffffffffffffffffffffffffffffffff82169050919050565b600061078c82610761565b9050919050565b61079c81610781565b81146107a757600080fd5b50565b6000813590506107b981610793565b92915050565b6000819050919050565b6107d2816107bf565b81146107dd57600080fd5b50565b6000813590506107ef816107c9565b92915050565b6000806040838503121561080c5761080b610757565b5b600061081a858286016107aa565b925050602061082b858286016107e0565b9150509250929050565b60006020828403121561084b5761084a610757565b5b6000610859848285016107aa565b91505092915050565b600081519050919050565b600082825260208201905092915050565b60005b8381101561089c578082015181840152602081019050610881565b838111156108ab576000848401525b50505050565b6000601f19601f8301169050919050565b60006108cd82610862565b6108d7818561086d565b93506108e781856020860161087e565b6108f0816108b1565b840191505092915050565b610904816107bf565b82525050565b600060a082019050818103600083015261092481886108c2565b9050818103602083015261093881876108c2565b905061094760408301866108fb565b61095460608301856108fb565b61096160808301846108fb565b9695505050505050565b600080fd5b600080fd5b7f4e487b7100000000000000000000000000000000000000000000000000000000600052604160045260246000fd5b6109ad826108b1565b810181811067ffffffffffffffff821117156109cc576109cb610975565b5b80604052505050565b60006109df61074d565b90506109eb82826109a4565b919050565b600067ffffffffffffffff821115610a0b57610a0a610975565b5b610a14826108b1565b9050602081019050919050565b82818337600083830152505050565b6000610a43610a3e846109f0565b6109d5565b905082815260208101848484011115610a5f57610a5e610970565b5b610a6a848285610a21565b509392505050565b600082601f830112610a8757610a8661096b565b5b8135610a97848260208601610a30565b91505092915050565b600080600060608486031215610ab957610ab8610757565b5b6000610ac7868287016107aa565b935050602084013567ffffffffffffffff811115610ae857610ae761075c565b5b610af486828701610a72565b925050604084013567ffffffffffffffff811115610b1557610b1461075c565b5b610b2186828701610a72565b9150509250925092565b60008060008060008060c08789031215610b4857610b47610757565b5b6000610b5689828a016107aa565b965050602087013567ffffffffffffffff811115610b7757610b7661075c565b5b610b8389828a01610a72565b955050604087013567ffffffffffffffff811115610ba457610ba361075c565b5b610bb089828a01610a72565b9450506060610bc189828a016107e0565b9350506080610bd289828a016107e0565b92505060a0610be389828a016107e0565b9150509295509295509295565b7f4e487b7100000000000000000000000000000000000000000000000000000000600052601160045260246000fd5b6000610c2a826107bf565b9150610c35836107bf565b9250827fffffffffffffffffffffffffffffffffffffffffffffffffffffffffffffffff03821115610c6a57610c69610bf0565b5b828201905092915050565b7f4e487b7100000000000000000000000000000000000000000000000000000000600052602260045260246000fd5b60006002820490506001821680610cbc57607f821691505b602082108103610ccf57610cce610c75565b5b5091905056fea26469706673582212203aae305dffc11ab541889777828fb947b14ffe907adf5ab0abd873738947896964736f6c634300080d0033",
  "immutableReferences": {},
  "source": "// SPDX-License-Identifier: MIT\npragma solidity ^0.8.13;\n\ncontract GobangUserProfile {\n    struct UserProfile {\n        string username;\n        string avatarUrl; // added avatarUrl\n        uint256 matchCount;\n        uint256 winningCount;\n        uint256 rank;\n    }\n\n    mapping(address => UserProfile) public profiles;\n\n    function createUserProfile(\n        address userAddress,\n        string memory username,\n        string memory avatarUrl  // added avatarUrl parameter\n    ) public {\n        profiles[userAddress] = UserProfile(username, avatarUrl, 0, 0, 0);  // use avatarUrl\n    }\n\n    function incrementMatchCount(address userAddress) public {\n        profiles[userAddress].matchCount += 1;\n    }\n\n    function incrementWinningCount(address userAddress) public {\n        profiles[userAddress].winningCount += 1;\n    }\n\n    function updateRank(address userAddress, uint256 newRank) public {\n        profiles[userAddress].rank = newRank;\n    }\n\n    function updateUserProfile(address userAddress, string memory username, string memory avatarUrl, uint256 matchCount, uint256 winningCount, uint256 rank) public {  // added avatarUrl parameter\n        UserProfile storage profile = profiles[userAddress];\n        profile.username = username;\n        profile.avatarUrl = avatarUrl; // update avatarUrl\n        profile.matchCount = matchCount;\n        profile.winningCount = winningCount;\n        profile.rank = rank;\n    }\n\n    function getUserProfile(address userAddress) public view returns (string memory, string memory, uint256, uint256, uint256) { // added avatarUrl in return type\n        UserProfile storage profile = profiles[userAddress];\n        return (profile.username, profile.avatarUrl, profile.matchCount, profile.winningCount, profile.rank); // return avatarUrl\n    }\n}\n",
  "sourcePath": "/Users/Bevis/Local-Files/EECE597/GobangUserProfile/contracts/GobangUserProfile.sol",
  "compiler": {
    "name": "solc",
    "version": "0.8.13+commit.abaa5c0e.Emscripten.clang"
  },
  "schemaVersion": "3.4.14",
  "updatedAt": "2023-08-24T03:23:03.100Z",
  "networkType": "ethereum",
  "devdoc": {
    "kind": "dev",
    "methods": {},
    "version": 1
  },
  "userdoc": {
    "kind": "user",
    "methods": {},
    "version": 1
  }
}