{
  "contractName": "GobangUserProfile",
  "abi": [
    {
      "inputs": [
        {
          "internalType": "address",
          "name": "",
          "type": "address"
        }
      ],
      "name": "profiles",
      "outputs": [
        {
          "internalType": "string",
          "name": "username",
          "type": "string"
        },
        {
          "internalType": "uint256",
          "name": "matchCount",
          "type": "uint256"
        },
        {
          "internalType": "uint256",
          "name": "winningCount",
          "type": "uint256"
        },
        {
          "internalType": "uint256",
          "name": "rank",
          "type": "uint256"
        }
      ],
      "stateMutability": "view",
      "type": "function",
      "constant": true
    },
    {
      "inputs": [
        {
          "internalType": "address",
          "name": "userAddress",
          "type": "address"
        },
        {
          "internalType": "string",
          "name": "username",
          "type": "string"
        }
      ],
      "name": "createUserProfile",
      "outputs": [],
      "stateMutability": "nonpayable",
      "type": "function"
    },
    {
      "inputs": [
        {
          "internalType": "address",
          "name": "userAddress",
          "type": "address"
        }
      ],
      "name": "incrementMatchCount",
      "outputs": [],
      "stateMutability": "nonpayable",
      "type": "function"
    },
    {
      "inputs": [
        {
          "internalType": "address",
          "name": "userAddress",
          "type": "address"
        }
      ],
      "name": "incrementWinningCount",
      "outputs": [],
      "stateMutability": "nonpayable",
      "type": "function"
    },
    {
      "inputs": [
        {
          "internalType": "address",
          "name": "userAddress",
          "type": "address"
        },
        {
          "internalType": "uint256",
          "name": "newRank",
          "type": "uint256"
        }
      ],
      "name": "updateRank",
      "outputs": [],
      "stateMutability": "nonpayable",
      "type": "function"
    },
    {
      "inputs": [
        {
          "internalType": "address",
          "name": "userAddress",
          "type": "address"
        },
        {
          "internalType": "string",
          "name": "username",
          "type": "string"
        },
        {
          "internalType": "uint256",
          "name": "matchCount",
          "type": "uint256"
        },
        {
          "internalType": "uint256",
          "name": "winningCount",
          "type": "uint256"
        },
        {
          "internalType": "uint256",
          "name": "rank",
          "type": "uint256"
        }
      ],
      "name": "updateUserProfile",
      "outputs": [],
      "stateMutability": "nonpayable",
      "type": "function"
    },
    {
      "inputs": [
        {
          "internalType": "address",
          "name": "userAddress",
          "type": "address"
        }
      ],
      "name": "getUserProfile",
      "outputs": [
        {
          "internalType": "string",
          "name": "",
          "type": "string"
        },
        {
          "internalType": "uint256",
          "name": "",
          "type": "uint256"
        },
        {
          "internalType": "uint256",
          "name": "",
          "type": "uint256"
        },
        {
          "internalType": "uint256",
          "name": "",
          "type": "uint256"
        }
      ],
      "stateMutability": "view",
      "type": "function",
      "constant": true
    }
  ],
  "bytecode": "0x608060405234801561001057600080fd5b50610b36806100206000396000f3fe608060405234801561001057600080fd5b506004361061007d5760003560e01c8063987ee1561161005b578063987ee156146100d6578063bbe1562714610109578063bebce9701461013c578063e97252f0146101585761007d565b8063012ae93d146100825780635e0afccc1461009e578063905efe64146100ba575b600080fd5b61009c600480360381019061009791906107d8565b610174565b005b6100b860048036038101906100b3919061086f565b6101f2565b005b6100d460048036038101906100cf91906108af565b61023c565b005b6100f060048036038101906100eb91906108af565b610298565b6040516101009493929190610973565b60405180910390f35b610123600480360381019061011e91906108af565b61038f565b6040516101339493929190610973565b60405180910390f35b610156600480360381019061015191906108af565b610447565b005b610172600480360381019061016d91906109bf565b6104a3565b005b60008060008773ffffffffffffffffffffffffffffffffffffffff1673ffffffffffffffffffffffffffffffffffffffff1681526020019081526020016000209050848160000190805190602001906101ce929190610547565b50838160010181905550828160020181905550818160030181905550505050505050565b806000808473ffffffffffffffffffffffffffffffffffffffff1673ffffffffffffffffffffffffffffffffffffffff168152602001908152602001600020600301819055505050565b60016000808373ffffffffffffffffffffffffffffffffffffffff1673ffffffffffffffffffffffffffffffffffffffff168152602001908152602001600020600101600082825461028e9190610a4a565b9250508190555050565b60606000806000806000808773ffffffffffffffffffffffffffffffffffffffff1673ffffffffffffffffffffffffffffffffffffffff1681526020019081526020016000209050806000018160010154826002015483600301548380546102ff90610acf565b80601f016020809104026020016040519081016040528092919081815260200182805461032b90610acf565b80156103785780601f1061034d57610100808354040283529160200191610378565b820191906000526020600020905b81548152906001019060200180831161035b57829003601f168201915b505050505093509450945094509450509193509193565b60006020528060005260406000206000915090508060000180546103b290610acf565b80601f01602080910402602001604051908101604052809291908181526020018280546103de90610acf565b801561042b5780601f106104005761010080835404028352916020019161042b565b820191906000526020600020905b81548152906001019060200180831161040e57829003601f168201915b5050505050908060010154908060020154908060030154905084565b60016000808373ffffffffffffffffffffffffffffffffffffffff1673ffffffffffffffffffffffffffffffffffffffff16815260200190815260200160002060020160008282546104999190610a4a565b9250508190555050565b6040518060800160405280828152602001600081526020016000815260200160008152506000808473ffffffffffffffffffffffffffffffffffffffff1673ffffffffffffffffffffffffffffffffffffffff1681526020019081526020016000206000820151816000019080519060200190610521929190610547565b506020820151816001015560408201518160020155606082015181600301559050505050565b82805461055390610acf565b90600052602060002090601f01602090048101928261057557600085556105bc565b82601f1061058e57805160ff19168380011785556105bc565b828001600101855582156105bc579182015b828111156105bb5782518255916020019190600101906105a0565b5b5090506105c991906105cd565b5090565b5b808211156105e65760008160009055506001016105ce565b5090565b6000604051905090565b600080fd5b600080fd5b600073ffffffffffffffffffffffffffffffffffffffff82169050919050565b6000610629826105fe565b9050919050565b6106398161061e565b811461064457600080fd5b50565b60008135905061065681610630565b92915050565b600080fd5b600080fd5b6000601f19601f8301169050919050565b7f4e487b7100000000000000000000000000000000000000000000000000000000600052604160045260246000fd5b6106af82610666565b810181811067ffffffffffffffff821117156106ce576106cd610677565b5b80604052505050565b60006106e16105ea565b90506106ed82826106a6565b919050565b600067ffffffffffffffff82111561070d5761070c610677565b5b61071682610666565b9050602081019050919050565b82818337600083830152505050565b6000610745610740846106f2565b6106d7565b90508281526020810184848401111561076157610760610661565b5b61076c848285610723565b509392505050565b600082601f8301126107895761078861065c565b5b8135610799848260208601610732565b91505092915050565b6000819050919050565b6107b5816107a2565b81146107c057600080fd5b50565b6000813590506107d2816107ac565b92915050565b600080600080600060a086880312156107f4576107f36105f4565b5b600061080288828901610647565b955050602086013567ffffffffffffffff811115610823576108226105f9565b5b61082f88828901610774565b9450506040610840888289016107c3565b9350506060610851888289016107c3565b9250506080610862888289016107c3565b9150509295509295909350565b60008060408385031215610886576108856105f4565b5b600061089485828601610647565b92505060206108a5858286016107c3565b9150509250929050565b6000602082840312156108c5576108c46105f4565b5b60006108d384828501610647565b91505092915050565b600081519050919050565b600082825260208201905092915050565b60005b838110156109165780820151818401526020810190506108fb565b83811115610925576000848401525b50505050565b6000610936826108dc565b61094081856108e7565b93506109508185602086016108f8565b61095981610666565b840191505092915050565b61096d816107a2565b82525050565b6000608082019050818103600083015261098d818761092b565b905061099c6020830186610964565b6109a96040830185610964565b6109b66060830184610964565b95945050505050565b600080604083850312156109d6576109d56105f4565b5b60006109e485828601610647565b925050602083013567ffffffffffffffff811115610a0557610a046105f9565b5b610a1185828601610774565b9150509250929050565b7f4e487b7100000000000000000000000000000000000000000000000000000000600052601160045260246000fd5b6000610a55826107a2565b9150610a60836107a2565b9250827fffffffffffffffffffffffffffffffffffffffffffffffffffffffffffffffff03821115610a9557610a94610a1b565b5b828201905092915050565b7f4e487b7100000000000000000000000000000000000000000000000000000000600052602260045260246000fd5b60006002820490506001821680610ae757607f821691505b602082108103610afa57610af9610aa0565b5b5091905056fea2646970667358221220d8174edcba1ba66864897f8648fe70b8e08e73a4f153728330b124fb9f34efd064736f6c634300080d0033",
  "immutableReferences": {},
  "source": "// SPDX-License-Identifier: MIT\npragma solidity ^0.8.13;\n\ncontract GobangUserProfile {\n    struct UserProfile {\n        string username;\n        uint256 matchCount;\n        uint256 winningCount;\n        uint256 rank;\n    }\n\n    mapping(address => UserProfile) public profiles;\n\n    function createUserProfile(\n        address userAddress,\n        string memory username\n    ) public {\n        profiles[userAddress] = UserProfile(username, 0, 0, 0);\n    }\n\n    function incrementMatchCount(address userAddress) public {\n        profiles[userAddress].matchCount += 1;\n    }\n\n    function incrementWinningCount(address userAddress) public {\n        profiles[userAddress].winningCount += 1;\n    }\n\n    function updateRank(address userAddress, uint256 newRank) public {\n        profiles[userAddress].rank = newRank;\n    }\n\n    function updateUserProfile(address userAddress, string memory username, uint256 matchCount, uint256 winningCount, uint256 rank) public {\n        UserProfile storage profile = profiles[userAddress];\n        profile.username = username;\n        profile.matchCount = matchCount;\n        profile.winningCount = winningCount;\n        profile.rank = rank;\n    }\n\n    function getUserProfile(address userAddress) public view returns (string memory, uint256, uint256, uint256) {\n        UserProfile storage profile = profiles[userAddress];\n        return (profile.username, profile.matchCount, profile.winningCount, profile.rank);\n    }\n}\n",
  "sourcePath": "/Users/Bevis/Local-Files/EECE597/GobangUserProfile/contracts/GobangUserProfile.sol",
  "compiler": {
    "name": "solc",
    "version": "0.8.13+commit.abaa5c0e.Emscripten.clang"
  },
  "schemaVersion": "3.4.14",
  "updatedAt": "2023-07-20T07:40:26.184Z",
  "networkType": "ethereum",
  "devdoc": {
    "kind": "dev",
    "methods": {},
    "version": 1
  },
  "userdoc": {
    "kind": "user",
    "methods": {},
    "version": 1
  }
}