{
  "contractName": "MemoryGameProfile",
  "abi": [
    {
      "anonymous": false,
      "inputs": [
        {
          "indexed": true,
          "internalType": "address",
          "name": "player",
          "type": "address"
        },
        {
          "indexed": false,
          "internalType": "uint32",
          "name": "completionTime",
          "type": "uint32"
        }
      ],
      "name": "NewGameResult",
      "type": "event"
    },
    {
      "anonymous": false,
      "inputs": [
        {
          "indexed": true,
          "internalType": "address",
          "name": "player",
          "type": "address"
        },
        {
          "indexed": false,
          "internalType": "string",
          "name": "userName",
          "type": "string"
        },
        {
          "indexed": false,
          "internalType": "string",
          "name": "userAvatar",
          "type": "string"
        }
      ],
      "name": "UpdatedUserProfile",
      "type": "event"
    },
    {
      "inputs": [
        {
          "internalType": "address",
          "name": "",
          "type": "address"
        }
      ],
      "name": "gameResults",
      "outputs": [
        {
          "internalType": "uint32",
          "name": "completionTime",
          "type": "uint32"
        }
      ],
      "stateMutability": "view",
      "type": "function",
      "constant": true
    },
    {
      "inputs": [
        {
          "internalType": "address",
          "name": "",
          "type": "address"
        }
      ],
      "name": "userProfiles",
      "outputs": [
        {
          "internalType": "string",
          "name": "userName",
          "type": "string"
        },
        {
          "internalType": "string",
          "name": "userAvatar",
          "type": "string"
        }
      ],
      "stateMutability": "view",
      "type": "function",
      "constant": true
    },
    {
      "inputs": [
        {
          "internalType": "string",
          "name": "_userName",
          "type": "string"
        },
        {
          "internalType": "string",
          "name": "_userAvatar",
          "type": "string"
        }
      ],
      "name": "updateUserProfile",
      "outputs": [],
      "stateMutability": "nonpayable",
      "type": "function"
    },
    {
      "inputs": [
        {
          "internalType": "uint32",
          "name": "_completionTime",
          "type": "uint32"
        }
      ],
      "name": "submitGameResult",
      "outputs": [],
      "stateMutability": "nonpayable",
      "type": "function"
    },
    {
      "inputs": [
        {
          "internalType": "address",
          "name": "_player",
          "type": "address"
        }
      ],
      "name": "getUserProfile",
      "outputs": [
        {
          "components": [
            {
              "internalType": "string",
              "name": "userName",
              "type": "string"
            },
            {
              "internalType": "string",
              "name": "userAvatar",
              "type": "string"
            }
          ],
          "internalType": "struct MemoryGameProfile.UserProfile",
          "name": "",
          "type": "tuple"
        }
      ],
      "stateMutability": "view",
      "type": "function",
      "constant": true
    },
    {
      "inputs": [
        {
          "internalType": "address",
          "name": "_player",
          "type": "address"
        }
      ],
      "name": "getGameResult",
      "outputs": [
        {
          "components": [
            {
              "internalType": "uint32",
              "name": "completionTime",
              "type": "uint32"
            }
          ],
          "internalType": "struct MemoryGameProfile.GameResult",
          "name": "",
          "type": "tuple"
        }
      ],
      "stateMutability": "view",
      "type": "function",
      "constant": true
    }
  ],
  "bytecode": "0x608060405234801561001057600080fd5b50610c8d806100206000396000f3fe608060405234801561001057600080fd5b50600436106100625760003560e01c80631d75d7c214610067578063332d56d71461009757806340e06979146100c8578063987ee156146100e4578063dd36ebbe14610114578063e957658814610130575b600080fd5b610081600480360381019061007c91906107c4565b610160565b60405161008e9190610810565b60405180910390f35b6100b160048036038101906100ac91906107c4565b61018e565b6040516100bf9291906108c4565b60405180910390f35b6100e260048036038101906100dd9190610a30565b6102c2565b005b6100fe60048036038101906100f991906107c4565b6103ac565b60405161010b9190610b36565b60405180910390f35b61012e60048036038101906101299190610b84565b610528565b005b61014a600480360381019061014591906107c4565b6105fd565b6040516101579190610bdc565b60405180910390f35b60016020528060005260406000206000915090508060000160009054906101000a900463ffffffff16905081565b60006020528060005260406000206000915090508060000180546101b190610c26565b80601f01602080910402602001604051908101604052809291908181526020018280546101dd90610c26565b801561022a5780601f106101ff5761010080835404028352916020019161022a565b820191906000526020600020905b81548152906001019060200180831161020d57829003601f168201915b50505050509080600101805461023f90610c26565b80601f016020809104026020016040519081016040528092919081815260200182805461026b90610c26565b80156102b85780601f1061028d576101008083540402835291602001916102b8565b820191906000526020600020905b81548152906001019060200180831161029b57829003601f168201915b5050505050905082565b60006040518060400160405280848152602001838152509050806000803373ffffffffffffffffffffffffffffffffffffffff1673ffffffffffffffffffffffffffffffffffffffff168152602001908152602001600020600082015181600001908051906020019061033692919061067c565b50602082015181600101908051906020019061035392919061067c565b509050503373ffffffffffffffffffffffffffffffffffffffff167f1400721a6ba40b9cc7b1f0b6e05e0d4474d3b5456a9d1693ea60795ec6e5c092848460405161039f9291906108c4565b60405180910390a2505050565b6103b4610702565b6000808373ffffffffffffffffffffffffffffffffffffffff1673ffffffffffffffffffffffffffffffffffffffff16815260200190815260200160002060405180604001604052908160008201805461040d90610c26565b80601f016020809104026020016040519081016040528092919081815260200182805461043990610c26565b80156104865780601f1061045b57610100808354040283529160200191610486565b820191906000526020600020905b81548152906001019060200180831161046957829003601f168201915b5050505050815260200160018201805461049f90610c26565b80601f01602080910402602001604051908101604052809291908181526020018280546104cb90610c26565b80156105185780601f106104ed57610100808354040283529160200191610518565b820191906000526020600020905b8154815290600101906020018083116104fb57829003601f168201915b5050505050815250509050919050565b600060405180602001604052808363ffffffff16815250905080600160003373ffffffffffffffffffffffffffffffffffffffff1673ffffffffffffffffffffffffffffffffffffffff16815260200190815260200160002060008201518160000160006101000a81548163ffffffff021916908363ffffffff1602179055509050503373ffffffffffffffffffffffffffffffffffffffff167f90a446f1575860ad21eccc755e4f630e32795d5ade4ac9fe8294137fb84eb8e7836040516105f19190610810565b60405180910390a25050565b61060561071c565b600160008373ffffffffffffffffffffffffffffffffffffffff1673ffffffffffffffffffffffffffffffffffffffff1681526020019081526020016000206040518060200160405290816000820160009054906101000a900463ffffffff1663ffffffff1663ffffffff16815250509050919050565b82805461068890610c26565b90600052602060002090601f0160209004810192826106aa57600085556106f1565b82601f106106c357805160ff19168380011785556106f1565b828001600101855582156106f1579182015b828111156106f05782518255916020019190600101906106d5565b5b5090506106fe9190610735565b5090565b604051806040016040528060608152602001606081525090565b6040518060200160405280600063ffffffff1681525090565b5b8082111561074e576000816000905550600101610736565b5090565b6000604051905090565b600080fd5b600080fd5b600073ffffffffffffffffffffffffffffffffffffffff82169050919050565b600061079182610766565b9050919050565b6107a181610786565b81146107ac57600080fd5b50565b6000813590506107be81610798565b92915050565b6000602082840312156107da576107d961075c565b5b60006107e8848285016107af565b91505092915050565b600063ffffffff82169050919050565b61080a816107f1565b82525050565b60006020820190506108256000830184610801565b92915050565b600081519050919050565b600082825260208201905092915050565b60005b8381101561086557808201518184015260208101905061084a565b83811115610874576000848401525b50505050565b6000601f19601f8301169050919050565b60006108968261082b565b6108a08185610836565b93506108b0818560208601610847565b6108b98161087a565b840191505092915050565b600060408201905081810360008301526108de818561088b565b905081810360208301526108f2818461088b565b90509392505050565b600080fd5b600080fd5b7f4e487b7100000000000000000000000000000000000000000000000000000000600052604160045260246000fd5b61093d8261087a565b810181811067ffffffffffffffff8211171561095c5761095b610905565b5b80604052505050565b600061096f610752565b905061097b8282610934565b919050565b600067ffffffffffffffff82111561099b5761099a610905565b5b6109a48261087a565b9050602081019050919050565b82818337600083830152505050565b60006109d36109ce84610980565b610965565b9050828152602081018484840111156109ef576109ee610900565b5b6109fa8482856109b1565b509392505050565b600082601f830112610a1757610a166108fb565b5b8135610a278482602086016109c0565b91505092915050565b60008060408385031215610a4757610a4661075c565b5b600083013567ffffffffffffffff811115610a6557610a64610761565b5b610a7185828601610a02565b925050602083013567ffffffffffffffff811115610a9257610a91610761565b5b610a9e85828601610a02565b9150509250929050565b600082825260208201905092915050565b6000610ac48261082b565b610ace8185610aa8565b9350610ade818560208601610847565b610ae78161087a565b840191505092915050565b60006040830160008301518482036000860152610b0f8282610ab9565b91505060208301518482036020860152610b298282610ab9565b9150508091505092915050565b60006020820190508181036000830152610b508184610af2565b905092915050565b610b61816107f1565b8114610b6c57600080fd5b50565b600081359050610b7e81610b58565b92915050565b600060208284031215610b9a57610b9961075c565b5b6000610ba884828501610b6f565b91505092915050565b610bba816107f1565b82525050565b602082016000820151610bd66000850182610bb1565b50505050565b6000602082019050610bf16000830184610bc0565b92915050565b7f4e487b7100000000000000000000000000000000000000000000000000000000600052602260045260246000fd5b60006002820490506001821680610c3e57607f821691505b602082108103610c5157610c50610bf7565b5b5091905056fea264697066735822122024ab3dbd3ba213e3a5da64aa6cc779677da739582a9ba66eb8017121698fec2a64736f6c634300080d0033",
  "immutableReferences": {},
  "source": "// SPDX-License-Identifier: MIT\npragma solidity ^0.8.13;\n\ncontract MemoryGameProfile {\n\n    struct UserProfile {\n        string userName;\n        string userAvatar;\n    }\n\n    struct GameResult {\n        uint32 completionTime; // stored in seconds\n    }\n\n    mapping(address => UserProfile) public userProfiles;\n    mapping(address => GameResult) public gameResults;\n\n    event UpdatedUserProfile(address indexed player, string userName, string userAvatar);\n    event NewGameResult(address indexed player, uint32 completionTime);\n\n    function updateUserProfile(string memory _userName, string memory _userAvatar) external {\n        UserProfile memory profile = UserProfile({\n            userName: _userName,\n            userAvatar: _userAvatar\n        });\n        userProfiles[msg.sender] = profile;\n        emit UpdatedUserProfile(msg.sender, _userName, _userAvatar);\n    }\n\n    function submitGameResult(uint32 _completionTime) external {\n        GameResult memory result = GameResult({\n            completionTime: _completionTime\n        });\n        gameResults[msg.sender] = result;\n        emit NewGameResult(msg.sender, _completionTime);\n    }\n\n    function getUserProfile(address _player) external view returns (UserProfile memory) {\n        return userProfiles[_player];\n    }\n\n    function getGameResult(address _player) external view returns (GameResult memory) {\n        return gameResults[_player];\n    }\n}\n",
  "sourcePath": "/Users/Bevis/Local-Files/EECE597/MemoryGameProfile/contracts/MemoryGameProfile.sol",
  "compiler": {
    "name": "solc",
    "version": "0.8.13+commit.abaa5c0e.Emscripten.clang"
  },
  "schemaVersion": "3.4.14",
  "updatedAt": "2023-08-23T00:07:03.645Z",
  "networkType": "ethereum",
  "devdoc": {
    "kind": "dev",
    "methods": {},
    "version": 1
  },
  "userdoc": {
    "kind": "user",
    "methods": {},
    "version": 1
  }
}